:100000000C9444030C946C030C946C030C946C03DC
:100010000C946C030C946C030C946C030C946C03A4
:100020000C946C030C946C030C9471130C94DA1301
:100030000C946C030C946C030C946C030C946C0384
:100040000C946C030C9474160C946C030C946C0359
:100050000C946C030C946C030C946C030C94271399
:100060000C946C030C9442160C941C160C946C03A8
:100070000C946C030C946C030C946C030C946C0344
:100080000C946C030C946C030C946C030C946C0334
:100090000C94D8160C946C030C946C030C946C03A5
:1000A0000C946C030C946C030C946C0345455052F7
:1000B0004F4D2052656164204F4B21004545505201
:1000C0004F4D206E6F7420696E697469616C697A36
:1000D000656421005265616420454550524F4D00D2
:1000E000454550524F4D20777269746520646566AE
:1000F00061756C7420646F6E652100000060000003
:100100000001003700F4010A000A000A000A000A90
:10011000000A000A000A0000100010001000100081
:10012000100010001000100100010001000100018A
:100130000001000100010014053C002C01000045F5
:100140004550524F4D2075706461746520646F6E28
:100150006521004C6F6E6770726573732066726FF5
:100160006D204F464600426C696E6B0070776D43A0
:100170006F6E74726F6C6C6572206E6F7420696E36
:10018000697400526570656174507265737365645B
:1001900020666F72206368313A00546F67676C6540
:1001A00020646972656374696F6E00436C69636B88
:1001B000656420666F72206368313A007365744429
:1001C000696D6D696E674C6576656C3A200001015A
:1001D00001010101010202020203030304040404F9
:1001E0000505050606060707070808080909090A9C
:1001F0000A0A0B0B0B0C0C0D0D0D0E0E0E0F0F1033
:1002000010101111121212131314141515161616BC
:100210001717181819191A1A1B1B1C1C1D1D1E1E36
:100220001F1F20212122222323242525262627289B
:100230002829292A2B2B2C2D2D2E2F2F30313132EE
:100240003334343536373738393A3A3B3C3D3E3E25
:100250003F40414243434445464748494A4B4C4D41
:100260004D4E4F5051525354555657595A5B5C5D41
:100270005E5F6061626465666768696B6C6D6E7015
:10028000717273757677797A7B7D7E8081828485C1
:1002900087888A8B8D8E9091939596989A9B9D9E38
:1002A000A0A2A4A5A7A9ABACAEB0B2B4B6B8BABB75
:1002B000BDBFC1C3C5C7CACCCED0D2D4D6D9DBDD71
:1002C000DFE2E4E6E8EBEDF0F2F4F7F9FCFF080B0F
:1002D0000002020200000904000001020200000501
:1002E000240010010524010101042402060524064E
:1002F00000010705810310004009040100020A0003
:1003000000000705020240000007058302400000CC
:100310000403090412010002EF0201404123378067
:1003200000010102030141726475696E6F204C4C3B
:10033000430041726475696E6F204D6963726F008E
:100340005265736574206163746976652100736515
:1003500074757041646320446F6E650073657475D5
:10036000704D6F6462757320696E74657266616347
:100370006520446F6E65004D6F6462757341646102
:100380007074657220696E697420646F6E652121D6
:1003900021004D6F646275734164617074657228E9
:1003A000293A2061646420494E5055545F524547B4
:1003B000004D6F64627573416461707465722829C1
:1003C0003A2061646420484F4C44494E475F52458F
:1003D00047004D6F64627573416461707465722883
:1003E000293A206164642044495343524554455F8F
:1003F000494E505554004D6F64627573416461708D
:1004000074657228293A2061646420434F494C0086
:100410004C65644368616E6E656C20696E6974201A
:10042000646F6E6500627574746F6E2070617261C6
:100430006D73205B6C6F6E67707265737320737081
:1004400065656420646F75626C65636C69636B5D80
:1004500000040506070815141373657475702829C0
:100460003A20626567696E005265736574206C6F2F
:100470006E677072657373004D6F6462757320727E
:1004800065712D3E736574207374617465004D6FE2
:1004900064627573207265712D3E73657420736597
:1004A000744272696768746E6573734C6576656CC7
:1004B000006368616E6E656C734D6178426C696E45
:1004C0006B416E696D6174696F6E2066696E6973E8
:1004D0006820666F72206368005265626F6F7420D7
:1004E000696E2033207365630044455649434520B7
:1004F0007265626F6F742072657175657374004404
:100500004556494345207361766520616E642072CB
:1005100065626F6F74207265717565737400444510
:100520005649434520726573657420616E6420727C
:1005300065626F6F74207265717565737400000079
:100540000000240027002A002D00300000000000D9
:10055000250028002B002E003100000000020009B9
:100560000F0000030401000C000000000000000068
:10057000000000000000000000005EBCE2613FDD02
:1005800083C29C7E20A3FD1F41009D23BE46DB65E8
:10059000F88C11AF32CA57E9746400036500036632
:1005A0000003670003680003690003780002790014
:1005B000027A00027B00020000010100010200013A
:1005C000030001040001050001060001070001000D
:1005D000000001000002000003000004000005000C
:1005E00000060000070000C80003C90003CA00039A
:1005F000CB0003CC0003CD0003CE0003CF0003D219
:100600000003D30003D40003D50003D60003D700B2
:1006100003D80003D90003DC0003DD0003DE000380
:10062000DF0003E00003E10003E20003E30003E670
:100630000003E70003E80003000000002300260099
:1006400029002C002F000404040404030405020202
:10065000020204030202020206060606060604045B
:1006600002020204040408020110408040102040ED
:100670008040800802040180402010020110801098
:1006800020404020F717F02911241FBECFEFDAE0F9
:10069000DEBFCDBF13E0A0E0B1E0EEE7FBE502C0B6
:1006A00005900D92AC36B107D9F727E0ACE6B3E080
:1006B00001C01D92A739B207E1F713E0C3E4D3E00C
:1006C00004C02197FE010E94AC2DC234D107C9F7A6
:1006D0000E9472190C94B22D0C9400008091880530
:1006E0008F3351F018F48F3149F008958F3541F070
:1006F0008F37D9F78CE008958AE0089589E008954E
:100700008BE0089590916B05E0916C05F0916D057B
:10071000292F209580FF14C0F89482818223828340
:100720008181892B8183A3E2B0E01197F1F7828167
:10073000982B9283789487ED90E00197F1F70895D4
:10074000F8948281822382838181892B8183AFEF18
:10075000B0E01197F1F78281982B928378948FE023
:1007600090E0EBCFFF920F931F93CF93DF93F82E80
:10077000062FC8E0D0E011E081E09F2D912309F41D
:1007800080E00E948203110F2197B1F7011113C07D
:10079000F894E0916C05F0916D05918180916B0565
:1007A000809598239183E0916C05F0916D0592817D
:1007B000892382837894DF91CF911F910F91FF90CD
:1007C00008950F931F93CF93DF9390916B05E09162
:1007D0006C05F0916D05F8942181392F3095232314
:1007E000218378944DE763E070E0415039F1DB01FB
:1007F0001197F1F720812923C1F3F8942281232353
:1008000022832181292B21837894ABE7B7E01197CC
:10081000F1F7F894218123232183A3E1B1E011971B
:10082000F1F720817894E3E6F6E03197F1F792232F
:1008300029F48C3C69F040F4853579F080E0DF9153
:10084000CF911F910F9108958C3E11F0803FB1F729
:1008500060E00E94B20381E0F2CF60E085E50E9493
:10086000B203CCE7D5E004E815E060E089910E948E
:10087000B2030C171D07C9F7EECF80916B05E0910D
:100880006C05F0916D05F8949181982B91832281EC
:10089000382F309523232283A7E0B0E01197F1F79A
:1008A000918193239183A3E2B0E01197F1F79081B6
:1008B0007894EFECF0E03197F1F7982381E009F4B8
:1008C00080E00895CF92DF92EF92FF920F931F93F3
:1008D000CF93DF93D0919805D1116FC080EF0E9424
:1008E000E103882309F469C000E0C0E0C12CD12CE9
:1008F0007601C3940E943D04182F0E943D041123E9
:1009000071F0882361F0109297058D2FDF91CF91C0
:100910001F910F91FF90EF90DF90CF900895EC2FF3
:10092000E695E695E695F0E03C2F3770E559FA4FED
:1009300024A1111130C0811133C0809197058C170B
:1009400061F18C1760F1822F90E0032E02C0959523
:1009500087950A94E2F7482F417080FF20C0D701A5
:10096000C60104C0880F991FAA1FBB1F3A95D2F772
:10097000822B84A3142F812F0E948203CF5FC03467
:1009800009F0B8CF00939705011103C081E080936F
:100990009805D1E0BACF412FE2CF41E0E0CF0C2F54
:1009A000D701C60104C0880F991FAA1FBB1F3A9523
:1009B000D2F78095822384A3DECF10929705109200
:1009C0009805D0E0A2CF9091FF03911103C08FEF63
:1009D0009FEF08954FB7F89492E09093E9009091BB
:1009E000F200292F30E01216130614F421E030E053
:1009F000232B29F084E68093FE038091F100992354
:100A000039F02091F200211103C02BE62093E80079
:100A10004FBF9923E1F290E008952FB7F89483E057
:100A20008093E9009091E800892F807295FF04C0BF
:100A30009091F20080E4891B2FBF08958091F60306
:100A400081110DC082E08093F20384E08093F30370
:100A50001092F5031092F40381E08093F60382EF85
:100A600093E0089581508F3008F047C0E82FF0E000
:100A7000E45CFA4F0C94AC2D59055D054B0551050E
:100A800055057D057D057D05600566056A056E05D4
:100A900074057D057805809180008F7780938000B4
:100AA0000895809180008F7DF9CF80918000877FAD
:100AB000F5CF84B58F7784BD089584B58F7DFBCF46
:100AC000809190008F77809390000895809190009E
:100AD0008F7DF9CF80919000877FF5CF8091C00006
:100AE0008F778093C00008958091C0008F7DF9CFEB
:100AF0008091C200877F8093C2000895CF93DF93D7
:100B0000282F30E0F901E65AFA4F8491F901EB59A8
:100B1000F94FD491F901EA5BF94FC491CC23A1F0CC
:100B200081110E943205EC2FF0E0EE0FFF1FE85C10
:100B3000F94FA591B491EC91ED2381E090E009F497
:100B400080E0DF91CF91089580E090E0FACF1F938D
:100B5000CF93DF93282F30E0F901E65AFA4F8491C2
:100B6000F901EB59F94FD491F901EA5BF94FC491BE
:100B7000CC23A9F0162F81110E943205EC2FF0E052
:100B8000EE0FFF1FE45BFA4FA591B4918FB7F89475
:100B9000EC91111108C0D095DE23DC938FBFDF915B
:100BA000CF911F910895DE2BF8CFCF93DF9390E084
:100BB000FC01EB59F94F24918A5B994FFC01849118
:100BC0008823C9F090E0880F991FFC01E25CFA4F7E
:100BD000A591B491FC01E45BFA4FC591D4916111E8
:100BE0000DC09FB7F8948C91209582238C938881B7
:100BF000282328839FBFDF91CF910895623051F45D
:100C00009FB7F8943C91822F809583238C93E88141
:100C10002E2BEFCF8FB7F894EC912E2B2C938FBF08
:100C2000EACF3FB7F8948091EE039091EF03A09143
:100C3000F003B091F10326B5A89B05C02F3F19F032
:100C40000196A11DB11D3FBFBA2FA92F982F88274C
:100C5000BC01CD01620F711D811D911D42E0660F27
:100C6000771F881F991F4A95D1F708958F929F92F9
:100C7000AF92BF92CF92DF92EF92FF924B015C0155
:100C80000E9411066B017C010E9411066C197D09FE
:100C90008E099F09683E734081059105A8F321E004
:100CA000821A9108A108B10888EEC80E83E0D81E08
:100CB000E11CF11C81149104A104B10429F7FF90F7
:100CC000EF90DF90CF90BF90AF909F908F9008955E
:100CD0002FB7F8946091EA037091EB038091EC03D5
:100CE0009091ED032FBF0895089508954091D70383
:100CF0005091D8032091D5033091D6034217530762
:100D0000B4F49091E8009570E1F39091E80092FDC1
:100D100019C08093F1008091D7039091D803019678
:100D20008F739927892B19F48EEF8093E8008091B7
:100D3000D7039091D80301969093D8038093D7035B
:100D400081E0089580E00895EF92FF920F931F9342
:100D5000CF93DF93F82E192FE62E042F81E0860F14
:100D6000880F0E94760683E00E947606CF2DD12F51
:100D7000EC0EFD2EF11CCE15DF05B9F007FF13C0F8
:100D8000FE0184910E947606182F80E00E9476066C
:100D9000812321968111EFCFDF91CF911F910F9188
:100DA000FF90EF9008958881EDCF81E0F5CFDF923D
:100DB000EF92FF920F931F93CF93DF93D82E8A0168
:100DC000EB017B01E40EF51ECE15DF0559F0D7FED1
:100DD00012C0FE0184910E94760621968111F4CF03
:100DE0000FEF1FEFC801DF91CF911F910F91FF907F
:100DF000EF90DF9008958881EECF0F931F93CF93EC
:100E0000DF931F92CDB7DEB782E0898342E450E0E2
:100E10006EEC72E080E80E94D7060E941E05DC019D
:100E200012960D911C910115110589F0D801ED91D3
:100E3000FC910280F381E02DBE016F5F7F4FC801FE
:100E4000099597FD04C0F80100851185ECCF8981D3
:100E50000F90DF91CF911F910F910895AF92BF92A4
:100E6000CF92DF92EF92FF920F931F93CF93DF9376
:100E70006C017B018B01040F151FEB015E01AE18A5
:100E8000BF08C017D10759F06991D601ED91FC91C7
:100E90000190F081E02DC6010995892B79F7C501F4
:100EA000DF91CF911F910F91FF90EF90DF90CF9046
:100EB000BF90AF900895FC01538D448D252F30E0F5
:100EC000842F90E0821B930B541710F0CF96089557
:100ED00001970895FC01918D828D981761F0A28D84
:100EE000AE0FBF2FB11D5D968C91928D9F5F9F734A
:100EF000928F90E008958FEF9FEF0895FC01918D00
:100F0000828D981731F0828DE80FF11D858D90E06C
:100F100008958FEF9FEF0895FC01918D228D892F09
:100F200090E0805C9F4F821B91098F7399270895F1
:100F300082E794E00E948C0721E0892B09F420E0ED
:100F4000822F089580E090E0892B29F00E94980775
:100F500081110C9400000895FC01A48DA80FB92FF5
:100F6000B11DA35ABF4F2C91848D90E001968F73D1
:100F70009927848FA689B7892C93A089B1898C91F0
:100F800082748C93938D848D981306C00288F389A4
:100F9000E02D80818F7D80830895EF92FF920F93E3
:100FA0001F93CF93DF93EC0181E0888F9B8D8C8D15
:100FB000981319C0E889F989808185FF14C09FB70B
:100FC000F894EE89FF896083E889F98980818274C9
:100FD00080839FBF81E090E0DF91CF911F910F91BF
:100FE000FF90EF900895F62E0B8D10E00F5F1F4FCE
:100FF0000F731127E02E8C8D8E110CC00FB607FCDD
:10100000FACFE889F989808185FFF5CFCE010E946A
:10101000AC07F1CFEB8DEC0FFD2FF11DE35AFF4F25
:10102000F0829FB7F8940B8FEA89FB8980818062F8
:10103000CFCFCF93DF93EC01888D8823B9F0AA89B5
:10104000BB89E889F9898C9185FD03C0808186FD83
:101050000DC00FB607FCF7CF8C9185FFF2CF8081D2
:1010600085FFEDCFCE010E94AC07E9CFDF91CF9194
:1010700008958F929F92AF92BF92CF92DF92EF929C
:10108000FF920F931F93CF93DF936C017B018A0133
:1010900080910B01882309F45BC08091FF038823B2
:1010A00009F456C08091DB0380FF05C08091E00009
:1010B00082608093E000E801B12C8AEFA82E93E0D3
:1010C000892E2AE3922E209711F4BB20D9F10E9499
:1010D0000D0581110AC0AA94AA20D1F161E070E047
:1010E00080E090E00E943606EECF8C171D0611F0CE
:1010F0000CF08C2F9FB7F8948092E9002091E800C3
:1011000025FD02C09FBFDFCF282F30E0C21BD30BCD
:10111000F701815020F041914093F100FACFE20EA7
:10112000F31EBB2021F09092E800B12CEBCF809110
:10113000E80085FDE7CF9092E800BB24B3942097A8
:1011400009F3F3CF84E68093DA03101611063CF01E
:1011500081E090E0F6019383828310E000E0C80113
:10116000DF91CF911F910F91FF90EF90DF90CF9083
:10117000BF90AF909F908F900895CF93DF931F9271
:10118000CDB7DEB76983DC01ED91FC910280F3817C
:10119000E02D41E050E0BE016F5F7F4F09950F9059
:1011A000DF91CF9108950F931F93CF93DF938C011D
:1011B000D0E0C0E0F801EC0FFD1F6491662341F020
:1011C0008FE095E00E94BD08892B11F02196F2CFA7
:1011D000CE01DF91CF911F910F91089583E080930D
:1011E000E9008091F200882319F08AE38093E800F7
:1011F00008950E940D0590E00895FC018485958571
:1012000097FD05C02FEF3FEF3587248708950C9495
:10121000E304CF93DF93EC018C859D8597FF04C099
:101220000E94E3049D878C878C859D85DF91CF91FB
:101230000895FC018485958597FD0BC09FB7F894B0
:1012400082E08093E9008091F2009FBF90E00196D8
:1012500008959FB7F89482E08093E9008091F200AE
:101260009FBF90E00895CF93DF93DC01ED91FC9157
:10127000A281B3811097B9F0EC012D814481558191
:1012800057FF0CC0ED91FC9111970190F081E02D7A
:10129000462FBC01CD01DF91CF910994422FFD0172
:1012A000DF91CF910994DF91CF910895FC01808166
:1012B0009181009749F0FC01208131812617370781
:1012C00019F084819581F5CF0895CF93DF93EA01DA
:1012D0006F5C7A480E945609009739F0FC01D3836D
:1012E000C28381E0DF91CF91089580E0FBCFAC0114
:1012F000E4EBF5E06591749180917A0790917B071A
:10130000009711F00C9465090895CF93DF93D0E016
:10131000C0E0442311F0C0E0DFEF6F5F7F4F0E9419
:101320005609009739F0FC01D383C28381E0DF9135
:10133000CF91089580E0FBCF0E945609009721F0DD
:10134000FC0182819381089590E080E00895DC01A2
:1013500011968D919C91DC01ED91FC910190F081B1
:10136000E02D0994FF920F931F93CF93DF93EC012D
:10137000F72E8A010E94A7096F2DCE010E94A709AE
:10138000602FCE010E94A709612FCE01DF91CF917E
:101390001F910F91FF900C94A709FC012081128AE4
:1013A00031E030934E042093700410924F04109259
:1013B0007104660F660F6A5F0C94A7090895E091A7
:1013C000010480910004E81730F4F0E0EE5FFB4F79
:1013D000808190E008958FEF9FEF08959091010430
:1013E000809100042FEF3FEF981748F4E92FF0E0C9
:1013F000EE5FFB4F208130E09F5F90930104C901B5
:1014000008958091000490910104891B990B08951F
:1014100090E080E0089520918D03260F3327331F3D
:1014200021323105ECF420914804FC0190E080E089
:10143000243069F082E00895A0918D032191AC01E0
:1014400043595C4FA40FB52FB11D2C9301968617FD
:1014500098F380918D03680F60938D0380E0089569
:1014600081E00895CF92DF92EF92FF920F931F9346
:10147000CF93DF937C01CB018A0120914E0422237C
:1014800089F0EB016B01C40ED51ECC15DD0569F0AA
:101490006991D701ED91FC910190F081E02DC70198
:1014A0000995F3CF642F0E940B0AC801DF91CF91F9
:1014B0001F910F91FF90EF90DF90CF900895CF9301
:1014C000DF931F92CDB7DEB7698320914E042223AC
:1014D000F9F020917104203258F021E030E0FC0155
:1014E0003383228390E080E00F90DF91CF910895C5
:1014F00080914F04E82FF0E0E05BFB4F99819083EF
:101500008F5F80934F048093710481E090E0ECCF73
:1015100061E0CE0101960E940B0AF7CF10924804B9
:1015200081E0809347041092220461E082E00E94EF
:10153000A70561E083E00E94A705E9EBF0E0808168
:101540008E7F808380818D7F808388E48093B80044
:1015500085E48093BC000895CF93DF9391E090934E
:101560006C038823B9F0C091B800D091BA00809183
:10157000BC008A7B8093BC0060E082E00E94A705EB
:1015800060E083E00E94A7050E948E0AD093BA0013
:10159000C093B800DF91CF9108958F929F92AF9240
:1015A000BF92CF92DF92EF92FF920F931F93CF9350
:1015B000DF93D0917104D13208F0D7C0182FC091B9
:1015C00070040E9411066B017C0180914804811116
:1015D0006BC082E080934804109347048FEF8093A0
:1015E000460410924504D0934404A0E5B4E0E4E23C
:1015F000F4E080E0D81391C010922304809123047A
:10160000CC0FC82BC093230480912204813009F0B1
:1016100088C0109222040E9411066B017C01809107
:1016200023048093BB0080914A0490914B04A091C5
:101630004C04B0914D04892B8A2B8B2BA1F00E9476
:10164000110600914A0410914B0420914C043091F2
:101650004D046C197D098E099F0906171707280785
:10166000390708F442C08091BC0083FDD8CF85ECD7
:101670008093BC000E9411066B017C01809148049C
:10168000823009F450C0809146048F3F09F46FC046
:1016900080914604803209F46CC080914604803306
:1016A00009F469C084E026C080914A0490914B04FB
:1016B000A0914C04B0914D04892B8A2B8B2B09F4FB
:1016C00084CF0E94110680904A0490904B04A09011
:1016D0004C04B0904D046C197D098E099F09861643
:1016E0009706A806B90608F070CF809149040E94B9
:1016F000AC0A85E010924F041092710410924E04CF
:10170000DF91CF911F910F91FF90EF90DF90CF90DD
:10171000BF90AF909F908F9008959D9191938F5F10
:1017200069CF85EEA5CF80914A0490914B04A0919A
:101730004C04B0914D04892B8A2B8B2B09F49ECF3E
:101740000E94110600914A0410914B0420914C0410
:1017500030914D046C197D098E099F0906171707F2
:101760002807390708F08ACFC0CF81E0C3CF80E0D7
:10177000C1CF82E0BFCF83E0BDCFCF92DF92EF92A7
:10178000FF920F931F93CF93DF93603171054CF558
:10179000EA016B018C010E94CD09F80187859089CF
:1017A0008130910539F134F48F3F9F4F2CF0F12CAB
:1017B000E12C02C00297D9F340E050E1209741F0BC
:1017C000C11520E1D207E8F06894F4F850E040E059
:1017D000B701C8010E94B20981E00E94CD0AF80158
:1017E000828BDF91CF911F910F91FF90EF90DF904F
:1017F000CF900895760184E0EE0CFF1C8A95E1F706
:10180000DBCFAE014E0D5F1D5F70E2CF1F93CF9314
:10181000DF93162FC9E9D5E098811A8A21E0209339
:101820004E049093700410924F0410927104682F2C
:10183000CE010E94A709612FCE010E94A70981E075
:101840000E94CD0A8A8BDF91CF911F910895CF938B
:10185000DF93E62FF0E0EE0FFF1FE80FF91F23A53F
:1018600034A5C3ADD4ADC9018C1B9D0B64E670E0FB
:101870000E94982D6F5F7F4F453608F044E6469FE3
:10188000F001479FF00D1124EC0FFD1FE11540E121
:10189000F40710F0EFEFFFE084E0F695E7958A9506
:1018A000E1F7E253FE4F849140E1849FC00111248F
:1018B0008F602817390708F4C901DF91CF91089587
:1018C0009A01009721F0462FB9010C9485090895DB
:1018D00021E0009749F06F5F7F4F0E949C0921E053
:1018E00081159F4F09F020E0822F0895CF93DF9359
:1018F000009781F0D0E0C0E0662311F0C0E0DFEF98
:10190000BA016F5E784D0E945609009719F0FC01EC
:10191000D383C283DF91CF910895CF93DF93009754
:1019200059F0EB01BA016F5B73460E9456090097AC
:1019300019F0FC01D383C283DF91CF910895009702
:1019400021F06F5B73460C949C098FEF9FEF089515
:10195000E62F642FE83060F5F0E0EB54F34FDC0144
:1019600012968D919C910C94AC2DBD0CC30CC60CA1
:10197000C90CCC0CCF0CD20CD50CE7EBF5E04591A3
:1019800054910C94760CEAEBF5E0F9CFEDEBF5E031
:10199000F6CFE0ECF5E0F3CFE3ECF5E0F0CFE6ECEA
:1019A000F5E0EDCFE9ECF5E0EACFECECF5E0E7CFE0
:1019B0000895683068F5E62FF0E0EB51F34FDC0155
:1019C00012968D919C910C94AC2DED0CF30CF60CB1
:1019D000F90CFC0CFF0C020D050DEFECF5E0659128
:1019E00074910C94680CE2EDF5E0F9CFE5EDF5E0CB
:1019F000F6CFE8EDF5E0F3CFEBEDF5E0F0CFEEED6F
:101A0000F5E0EDCFE1EEF5E0EACFE4EEF5E0E7CF8B
:101A100080E00895683068F5E62FF0E0EA5EF24F66
:101A2000DC0112968D919C910C94AC2D1E0D240D11
:101A3000270D2A0D2D0D300D330D360DE7EEF5E097
:101A4000659174910C949F0CEAEEF5E0F9CFEDEE00
:101A5000F5E0F6CFE0EFF5E0F3CFE3EFF5E0F0CF20
:101A6000E6EFF5E0EDCFE9EFF5E0EACFECEFF5E0FA
:101A7000E7CF8FEF9FEF089508950895CF93DF93F9
:101A8000EC0188819981DC01ED91FC910280F38168
:101A9000E02D6A8109959C81917021E0981301C025
:101AA00020E0822FDF91CF910895862F0C947E0540
:101AB0000C9468068F929F92AF92BF92CF92DF9262
:101AC000EF92FF920F931F93CF93DF9320E030E0CC
:101AD00040E855E40E942B2D9B01AC0160E27CEBB9
:101AE0008EEB9BE40E94F52B20E030E040E85FE3C2
:101AF0000E94882B0E94672C6330710514F463E008
:101B000070E08B016F3F710519F014F00FEF10E0DA
:101B1000809199051092AB0591E090934E048093CB
:101B2000700410924F041092710460E089E995E00E
:101B30000E94A70981E00E94CD0AC82F8093AB05BF
:101B40008111D3C0D09199050E9411066B017C01CF
:101B500080914804811163C081E0809348048093A0
:101B600047049FEF9093460410924504109244045A
:101B70008093230480912304DD0FD82BD09323047A
:101B800080912204813009F087C0109222040E94C3
:101B900011066B017C01809123048093BB0080912E
:101BA0004A0490914B04A0914C04B0914D04892BB0
:101BB0008A2B8B2BA1F00E94110680904A049090F2
:101BC0004B04A0904C04B0904D046C197D098E0913
:101BD0009F0986169706A806B90608F441C08091A9
:101BE000BC0083FDD8CF85EC8093BC000E94110619
:101BF0006B017C0180914804813009F44FC08091D1
:101C0000450481116DC080914504A4E2B4E0E2E096
:101C1000F4E0C81749F19D919193CF5FFACF80917D
:101C20004A0490914B04A0914C04B0914D04892B2F
:101C30008A2B8B2B09F48CCF0E94110680904A04CA
:101C400090904B04A0904C04B0904D046C197D0909
:101C50008E099F0986169706A806B90608F078CF60
:101C6000809149040E94AC0A10920104C0930004C0
:101C7000EC2EF12CC130D9F181E0E81AF10890F195
:101C800080919A0590919B05DC01ED91FC91028475
:101C9000F385E02D0995F0CF85EEA6CF80914A041B
:101CA00090914B04A0914C04B0914D04892B8A2B48
:101CB0008B2B09F49FCF0E94110680904A049090CC
:101CC0004B04A0904C04B0904D046C197D098E0912
:101CD0009F0986169706A806B90608F08BCFC0CFD5
:101CE00081E093CF84E08093AB0580E00BC08091CE
:101CF0009A0590919B05DC01ED91FC910284F3859E
:101D0000E02D0995C82FCF766C2F606180E00E948E
:101D1000060C602F8EEF0E94060C6C2F606880E02E
:101D20000E94060C8BEC97E00197F1F7DF91CF91C1
:101D30001F910F91FF90EF90DF90CF90BF90AF90E9
:101D40009F908F900895CF92DF92EF92FF920F9322
:101D50001F93CF93DF9385E50E94E103882321F051
:101D600060E08EEB0E94B203C4E8D5E08E0188E00B
:101D7000C82ED12CF12CEE24E3940E943D04811155
:101D8000FE28EE0C81E0C81AD108B9F7F801F192EB
:101D90008F01F5E00D381F0751F729E0E0E02150F1
:101DA00089F089918E27E82FEF70F0E0E758FA4F1D
:101DB0009491E82FE295EF70F0E0E757FA4FE49145
:101DC000E927EDCF81E090918C059E1380E0DF91B3
:101DD000CF911F910F91FF90EF90DF90CF900895DA
:101DE0008F929F92AF92BF920F931F93CF93DF93E7
:101DF000CDB7DEB7A1970FB6F894DEBF0FBECDBF4B
:101E000019A2423008F44AE08E010F5D1F4F842E64
:101E1000912CB12CA12CA50194010E94662BE62FD8
:101E2000B901CA01EA3044F5E05DD801EE938D01B5
:101E3000232B242B252B79F790E080E0109769F075
:101E4000FD0101900020E9F73197AF014A1B5B0BC0
:101E5000BD018FE095E00E943908A1960FB6F89475
:101E6000DEBF0FBECDBFDF91CF911F910F91BF900D
:101E7000AF909F908F900895E95CD7CF42E050E0FB
:101E800069E673E08FE095E00C943908CF93DF9317
:101E90000E94D308EC010E943E0F8C0F9D1FDF9122
:101EA000CF910895CF93DF93BC0190E080E04AE0AA
:101EB0000E94F00EEC010E943E0F8C0F9D1FDF91DF
:101EC000CF910895CF93DF936930B0F4EC01C60F42
:101ED000D11D453608F044E64B8B8CEB91E00E9417
:101EE000D3086B8970E090E080E04AE00E94F00E39
:101EF000DF91CF910C943E0FDF91CF910895CF9257
:101F0000DF92FF920F931F93CF93DF93EC01142F77
:101F1000423099F04530A9F1413059F58AE991E014
:101F20000E94460F8AA518271AA70E9468066BA769
:101F30007CA78DA79EA71FA61CC08BEA91E00E94DC
:101F4000460FEAA1FBA13097A1F0ED5AFF4F28A55B
:101F500081E090E0A0E0B0E004C0880F991FAA1FC4
:101F6000BB1F2A95D2F72081318182279327918345
:101F70008083DF91CF911F910F91FF90DF90CF90E1
:101F8000089583E891E00E94460F8AA19BA10097E3
:101F900059F48CE691E0DF91CF911F910F91FF9062
:101FA000DF90CF900C94460F68A5693008F075C09B
:101FB000E62FF0E0DC01AD5ABF4F2D913C91062E8B
:101FC00002C0369527950A94E2F720FF66C0E80F15
:101FD000F91F43892AA5222309F459C0443691F0F8
:101FE00024E630E0241B31094F5F223031050CF428
:101FF00044E6DF91CF911F910F91FF90DF90CF903A
:102000000C94620F2FA52111B4CF815B9F4FFC016F
:102010008081918102C0969587956A95E2F780FD4F
:10202000A8CF86E691E00E94460F0AA11BA1F8A462
:10203000F8E090E080E0FF1528F04CE36F2DC80138
:102040000E94270CCF2CD12CAC01B601C8010E94F4
:10205000BD0BF801EB5AFF4F81E090E0A0E0B0E04B
:1020600004C0880F991FAA1FBB1FFA94D2F72081C2
:102070003181822B932B918380830C0D1D1DF801E0
:10208000E95AFF4F88E2808381E08FA772CF423008
:1020900010F04150AECF40E0ACCF83E591E00E941C
:1020A000460F28A52930A8F4EAA1FBA1ED5AFF4F5D
:1020B00081E090E0A0E0B0E004C0880F991FAA1F63
:1020C000BB1F2A95D2F720813181822B932B9183DC
:1020D000808341E068A58AA19BA18BCFEF92FF92FC
:1020E0000F931F93CF93DF937C018C01C0E1D0E06D
:1020F000CE010E94312BF80181938F012196C435C6
:10210000D105B1F7C701DF91CF911F910F91FF90DA
:10211000EF900895DF92EF92FF920F931F93CF936A
:10212000DF937C018C01C0E1D0E0F801D1908F01F8
:10213000CE010E94312BD81621F06D2DCE010E94C8
:10214000392B2196C435D10581F7C701DF91CF9195
:102150001F910F91FF90EF90DF9008950F931F93C1
:10216000CF93DF938C0180EF0E94E103C0E08111E7
:1021700006C080E0DF91CF911F910F9108950E94DA
:102180003D04D82F0E943D04DD2311F08111F1CFD1
:10219000EC2FE695E695E695E00FF12FF11D808195
:1021A00090E02C2F277002C0959587952A95E2F72D
:1021B00081700E948203CF5FC03409F788E0F80184
:1021C000ACE7B5E001900D928A95E1F70E94A30E6D
:1021D000882379F20E946E0380938D0585E50E9425
:1021E000E103882321F060E084EB0E94B2030E94A7
:1021F0003D0480938E0581E0BDCF0C949F2A0C9402
:102200009F2A0F931F93CF93DF93182F062FCCE7AE
:10221000D7E08C819D810E949F2A82E08E8382E09C
:1022200090E00E94032AFC019D838C831058108348
:10223000018383E08F83DF91CF911F910F910895E8
:10224000EF92FF920F931F93CF93DF93EC017B01EB
:102250008A0186E090E00E94032AFC01F182E0827C
:10226000138302831582148288819981892B59F402
:10227000F983E883FB83EA83DF91CF911F910F916C
:10228000FF90EF900895AA81BB811596FC93EE9381
:102290001497F0CF85ED8093BC0080914A04909113
:1022A0004B04A0914C04B0914D040796A11DB11DA3
:1022B00023E0B695A795979587952A95D1F7209114
:1022C000BC0024FD03C010924804089540914A04C4
:1022D00050914B0460914C0470914D04452B462B5A
:1022E000472B69F30097A105B10541F025E32A9535
:1022F000F1F700000197A109B109E1CF80914904EC
:102300000C94AC0ACF93DF93CDB7DEB7C454D10998
:102310000FB6F894DEBF0FBECDBF44E450E06BEFC4
:1023200070E0CE0101960E94282B82EE9CE79A83F2
:10233000898381E99AE125969FAF8EAF2597CE01DB
:1023400001960E948A1080EE90E00E94460FCC5BBE
:10235000DF4F0FB6F894DEBF0FBECDBFDF91CF9138
:102360000895CF93DF93EC0184ED90E00E94460F37
:10237000CE010E946E1088819981823E9C4781F433
:10238000FE01EE5BFF4F8081918181399A4141F4DA
:102390008CEA90E00E94460FCE01DF91CF91089524
:1023A0008CEB90E00E94460F0E948211CE010E94A9
:1023B0006E10F2CF0F931F93CF93DF93CDB7DEB79D
:1023C000C454D1090FB6F894DEBF0FBECDBFCE0105
:1023D00001960E94B111E9E9F5E0659174910091CF
:1023E0007A0710917B07C8010E949F0C9C838B8306
:1023F000ECE9F5E065917491C8010E949F0C9E8301
:102400008D83EFE9F5E065917491C8010E949F0CFE
:1024100098878F83E2EAF5E065917491C8010E9484
:102420009F0C9A878987E8EAF5E065917491C80165
:102430000E949F0C9C878B87E7EEF5E06591749175
:10244000C8010E949F0C9E878D87EAEEF5E065919A
:102450007491C8010E949F0C988B8F87EDEEF5E078
:1024600065917491C8010E949F0C9A8B898BE0EF53
:10247000F5E065917491C8010E949F0C9C8B8B8B39
:10248000E3EFF5E065917491C8010E949F0C9E8B6B
:102490008D8BE6EFF5E065917491C8010E949F0C69
:1024A000988F8F8BE9EFF5E065917491C8010E94D8
:1024B0009F0C9A8F898FECEFF5E065917491C801BC
:1024C0000E949F0C9C8F8B8FEFEFF5E065917491CC
:1024D000C8010E949F0C9E8F8D8FE2E0F6E065910F
:1024E0007491C8010E949F0C98A38F8FE5E0F6E0DD
:1024F00065917491C8010E949F0C9AA389A3E8E09A
:10250000F6E065917491C8010E949F0C9CA38BA377
:10251000EBE0F6E065917491C8010E949F0C9EA3C8
:102520008DA3EEE0F6E065917491C8010E949F0CC6
:1025300098A78FA3E1E1F6E065917491C8010E942C
:102540009F0C9AA789A7E4E1F6E065917491C80110
:102550000E949F0C9CA78BA7E7E1F6E06591749120
:10256000C8010E949F0C9EA78DA7EAE1F6E0659145
:102570007491C8010E949F0C98AB8FA7EDE1F6E023
:1025800065917491C8010E949F0C9AAB89ABE0E2FF
:10259000F6E065917491C8010E949F0C9CAB8BABD7
:1025A000E3E2F6E065917491C8010E949F0C9EAB36
:1025B0008DABE6E2F6E065917491C8010E949F0C34
:1025C00098AF8FABE9E2F6E065917491C8010E9483
:1025D0009F0C9AAF89AFECE2F6E065917491C80167
:1025E0000E949F0C9CAF8BAFEFE2F6E06591749177
:1025F000C8010E949F0C9EAF8DAFE2E3F6E06591AB
:102600007491C8010E949F0C21969FAF8EAF2197B5
:10261000E5E3F6E065917491C8010E949F0C239652
:102620009FAF8EAF2397CE0101960E948A108FE351
:1026300091E00E94460FCC5BDF4F0FB6F894DEBFEF
:102640000FBECDBFDF91CF911F910F9108951F92C3
:102650000F920FB60F9211242F933F938F939F9356
:10266000AF93BF938091EA039091EB03A091EC03A9
:10267000B091ED033091E90323E0230F2D3758F596
:102680000196A11DB11D2093E9038093EA03909365
:10269000EB03A093EC03B093ED038091EE039091D4
:1026A000EF03A091F003B091F1030196A11DB11DBC
:1026B0008093EE039093EF03A093F003B093F103A4
:1026C000BF91AF919F918F913F912F910F900FBE2E
:1026D0000F901F90189526E8230F0296A11DB11D9B
:1026E000D2CF1F920F920FB60F9211248F939F9308
:1026F0008091E1009091E100937F9093E10083FF4E
:102700000FC01092E90091E09093EB001092EC0062
:1027100092E39093ED001092FF0398E09093F00005
:1027200082FF1CC093E09093E9009091F2009923FE
:1027300019F09AE39093E8009091DA03992329F035
:102740009091DA0391509093DA039091FE039923CC
:1027500029F09091FE0391509093FE0384FF18C0DE
:102760008091E2008E7E81608093E2008091E100A2
:102770008F7E8093E1008091DB038E7E8061809369
:10278000DB039F918F910F900FBE0F901F901895B4
:1027900080FFF7CF8091E2008E7E80618093E2001F
:1027A0008091E1008E7E8093E1008091DB038E7E3C
:1027B0008160E5CF1F920F920FB60F921124CF9236
:1027C000DF92EF92FF920F931F932F933F934F93BC
:1027D0005F936F937F938F939F93AF93BF93EF9389
:1027E000FF93CF93DF93CDB7DEB76C97DEBFCDBF3E
:1027F0001092E9008091E80083FF2FC089E0FE017C
:102800007596EE2EDF2E815029F09091F100908385
:102810003196F9CF84E68093FE0382EF8093E8003F
:102820008D8987FF39C09091E80090FFFCCF982FE9
:10283000907609F033C19E894F89588D2F89F88C85
:10284000911131C0803861F58091DC038093F100F3
:102850001092F1008EEF8093E8006C960FB6F8941A
:10286000DEBF0FBECDBFDF91CF91FF91EF91BF9142
:10287000AF919F918F917F916F915F914F913F9118
:102880002F911F910F91FF90EF90DF90CF900F90BD
:102890000FBE0F901F9018959EEF9093E800C7CF42
:1028A0001092F100D5CF913059F48111D3CF41303E
:1028B000510581F68091DC038D7F8093DC03CACFC4
:1028C000933049F48111C6CF4130510519F68091FA
:1028D000DC038260F2CF953041F48091E80080FF04
:1028E000FCCF20682093E300B5CF963009F0A8C054
:1028F0000B8D1C8D22E01092E9001092D8031092EB
:10290000D703F2122EC01092D6031092D5030E9464
:10291000FD061F8299E09983FA8291E09E8390EAF6
:1029200098879AEF99872091D7033091D803275F32
:102930003F4F3C832B838D831092E9001092D80384
:102940001092D7031093D6030093D50349E050E0CB
:10295000BE016F5F7F4F80E00E94D7060E94FD0698
:1029600079CF1093D6030093D5030E941E05DC0196
:1029700012960D911C910115110509F457C1D8014A
:10298000ED91FC910480F581E02D6E2D7D2DC80127
:102990000995009709F045C1F80100851185EBCF35
:1029A000F3E0FF120EC08F89882309F440C0823003
:1029B00061F440E86DE082E393E00E94A406811197
:1029C00049CF81E28093EB0048CF813029F440E881
:1029D0006BE086E293E0F1CF833099F70E941E0509
:1029E000DC011296ED90FC908E010F5F1F4F680185
:1029F000E114F10479F0D701ED91FC910680F781A3
:102A0000E02DB801C7010995080F111DF701E084F9
:102A1000F184EECFD8011C92F60101900020E9F775
:102A20003197BF016C197D0940E0C601C6CF60E156
:102A300073E0FB01449150E080E80E94D7060ACF82
:102A4000973009F4BECF983021F481E08093F100F3
:102A500001CF993009F0FECE837009F0B2CFE3E1E7
:102A6000F1E081E031E096E32191222371F080933F
:102A7000E9003093EB00DF0111972C912093EC00DB
:102A80009093ED008F5F873079F78EE78093EA00AF
:102A90001092EA008F898093FF03DCCE8B8D9C8D92
:102AA0001092E9001092D8031092D7039093D603A6
:102AB0008093D503898D81119AC08E899D89913A21
:102AC00049F4813209F07DCF47E050E064E071E0E5
:102AD00080E0B3CF913209F074CF833269F48F89EB
:102AE000988DB0E0A0E08093000190930101A09345
:102AF0000201B0930301AECE8032A9F48091E800C8
:102B000082FFFCCF88E0E4E0F1E0815029F0909171
:102B1000F10090833196F9CF84E68093FE038BEF2A
:102B20008093E80097CE823209F094CE8F8980930B
:102B30000B01EEEFFFE7859194918B3F9C4D51F196
:102B4000E0E0F8E08091040190910501A091060178
:102B5000B0910701803B9440A105B105F1F480914B
:102B60000B0180FD1AC0EE3F8AE0F80789F587E780
:102B700097E791838083809160008093D90388E1F7
:102B80009BE00FB6F894A895809360000FBE9093D9
:102B9000600060CEEEEFFAE0D5CF8081918187377B
:102BA000974709F057CEA89580916000886180937F
:102BB00060008091D90380936000EE3F2AE0F20725
:102BC00089F08091FE0A9091FF0A9183808342CE22
:102BD000808191818737980751F29093FF0A809303
:102BE000FE0AC5CF1092FF0A1092FE0A33CE0E9451
:102BF0001E05DC0112960D911C910115110509F4B9
:102C0000E0CED801ED91FC910190F081E02D6E2D88
:102C10007D2DC801099581111DCEF8010085118512
:102C2000ECCF181619060CF415CECBCEF1E0FF123E
:102C3000B7CE64E173E0FDCE1F920F920FB60F92F4
:102C400011242F933F934F935F936F937F938F93B1
:102C50009F93AF93BF93EF93FF9382E794E00E941B
:102C6000AC07FF91EF91BF91AF919F918F917F91B1
:102C70006F915F914F913F912F910F900FBE0F90E9
:102C80001F9018951F920F920FB60F9211242F9339
:102C90008F939F93EF93FF93E0918204F0918304CD
:102CA0008081E0918804F091890482FD1BC09081AD
:102CB00080918B048F5F8F7320918C04821741F079
:102CC000E0918B04F0E0EE58FB4F958F80938B04DE
:102CD000FF91EF919F918F912F910F900FBE0F90C9
:102CE0001F9018958081F4CF1F920F920FB60F920C
:102CF00011242F933F938F939F93EF93FF93809192
:102D0000D40387FF1FC01092850010928400809129
:102D1000D4038F5F8093D4038091D40387FF04C0D2
:102D20008091D4038C30ACF0809184009091850028
:102D3000049680349C4990F18091840090918500A4
:102D400004962EC08091D40387FFE1CF8091D403F5
:102D5000DECF2091840030918500E091D4038E2F46
:102D6000EE0F990BFC01EE0FFF1FE80FF91FE05566
:102D7000FC4F81819281820F931F909389008093F1
:102D800088008091D403FF91EF919F918F913F91A3
:102D90002F910F900FBE0F901F90189580E49CE923
:102DA00090938900809388008FEF8093D403EBCFBA
:102DB0001F920F920FB60F9211242F933F934F93B0
:102DC0005F936F937F938F939F93AF93BF93EF9393
:102DD000FF938091B900887F803609F44AC0F0F5EE
:102DE000883209F4A7C018F5803109F49BC0B8F403
:102DF000882309F4F9C0883009F494C0FF91EF9159
:102E0000BF91AF919F918F917F916F915F914F9102
:102E10003F912F910F900FBE0F901F901895883102
:102E200009F488C0803251F78093460414C080347E
:102E300009F49DC040F48033B9F38833F9F68093E8
:102E4000460485ECB0C0803509F485C0883509F4A6
:102E500096C0883499F60E944A11D0CF883909F477
:102E60008CC038F5883729F050F4883611F0803757
:102E700029F683E0809348041092AF0357C0883846
:102E800009F47BC0803919F0803809F0B7CF809100
:102E9000AF03803208F071C0E091AF0381E08E0F84
:102EA0008093AF038091BB00F0E0E157FC4F80833B
:102EB0003DC0803B39F0E0F4803A09F479C0883AAB
:102EC00009F09CCF84E08093480410928E03109206
:102ED0008D03E091DF03F091E003099580918D036C
:102EE00081110FC081E080938D0310926D0309C0A2
:102EF000803C09F4A6CF883C09F4A3CF883B09F0B5
:102F00007DCFE0918E0381E08E0F80938E03F0E001
:102F1000E359FC4F80818093BB0090918E03809198
:102F20008D0329C0809123048093BB0085EC80939E
:102F3000BC0064CF9091450480914404981758F5E3
:102F4000E091450481E08E0F80934504F0E0EC5D54
:102F5000FB4F8081E9CFE091450481E08E0F8093A3
:102F600045048091BB00F0E0EC5DFB4F80839091C5
:102F70004504809144049817C8F285E8D8CFE091C1
:102F8000450481E08E0F809345048091BB00F0E002
:102F9000EC5DFB4F80838091470481115CCF81E021
:102FA0008093220484EA8093BC001092480426CFC8
:102FB00085EC8093BC00109248048091AF0380326E
:102FC00030F4E091AF03F0E0E157FC4F10826091E4
:102FD000AF0370E0E091DD03F091DE038FE893E052
:102FE00009951092AF030ACF1092460434CFAF92E6
:102FF000BF92CF92DF92EF92FF920F931F93CF93E6
:10300000DF93109275041092740488EE93E0A0E0B0
:10301000B0E08093760490937704A0937804B09303
:1030200079042DE133E030937304209372042DEC86
:1030300030E030937F0420937E042CEC30E030931A
:1030400081042093800428EC30E0309383042093A3
:10305000820429EC30E030938504209384042AEC28
:1030600030E030938704209386042EEC30E03093D8
:1030700089042093880410928B0410928C0410927F
:103080008D0410928E0410921205109211058093F7
:10309000130590931405A0931505B09316052FE220
:1030A00033E03093100520930F052FEF3FEF30935F
:1030B0001C0520931B0510926205109261058093F8
:1030C000630590936405A0936505B093660581E45C
:1030D00093E09093600580935F0510927D071092B6
:1030E0007C0710927F0710927E0785E693E090930D
:1030F00079078093780710927B0710927A07E8EFA0
:10310000F5E09BE5C92E93E0D92E22E1F22E03E5EE
:1031100013E034E1A32EB12C28EC30E060E971E03B
:1031200048EE53E09FE781E0DF01CD92DD92ED01B3
:10313000EF2C1992EA94E9F7138302831582148223
:1031400017821682B186A0863387228775876487A7
:1031500057874687518B408B338B228BB58BA48B43
:10316000168A178A918F138E128E158E148E808F69
:1031700013A212A215A214A216A217A210A611A69B
:1031800082A713A614A615A616A617A6F096A7E062
:10319000E837FA0749F6109299058FE595E0909384
:1031A0009B0580939A0580E89AE1A6E0B0E08093C1
:1031B0009C0590939D05A0939E05B0939F058FEF6E
:1031C0009FEF9093A1058093A0059093A305809312
:1031D000A2059093A5058093A4059093A7058093DD
:1031E000A6059093A9058093A8051092AA051092B0
:1031F000AB051092E4051092E5051092E6051092D9
:10320000E7051092E9051092E8051092EB0510927F
:10321000EA051092ED051092EC051092EF05109260
:10322000EE0560E08AE00E94D505EFE6F6E0E49165
:10323000E0936B05E0E5F6E0E491F0E0EE0FFF1FB0
:10324000E85CF94F8591949190936D0580936C059E
:1032500010927605109278051092770510927505F8
:1032600010927405109273051092720510927105F8
:103270001092700510926F0510926E0510929705CE
:10328000109298058CEC0E94E103882321F060E005
:1032900084EB0E94B2030E943D0480937A050E9451
:1032A00062048823A1F08FE895E00E94AE10882385
:1032B00071F00E946E0390917905981710F4809335
:1032C000790580917B058F5F80937B05E8CFDF9147
:1032D000CF911F910F91FF90EF90DF90CF90BF9013
:1032E000AF900895CF93DF93CDB7DEB7CC56D10919
:1032F0000FB6F894DEBF0FBECDBF789484B5826060
:1033000084BD84B5816084BD85B5826085BD85B589
:10331000816085BD80916E00816080936E00109207
:103320008100809181008260809381008091810082
:103330008160809381008091800081608093800013
:1033400080919100826080939100809191008160D2
:103350008093910080919000816080939000809193
:10336000C10084608093C1008091C100826080931D
:10337000C1008091C10081608093C1008091C30031
:1033800081608093C3008091C00082608093C00000
:103390008091C20081608093C20080917A00846035
:1033A00080937A0080917A00826080937A00809185
:1033B0007A00816080937A0080917A00806880939F
:1033C0007A001092FF031092DC031092DB038091CD
:1033D000D70081608093D70080EA8093D80089B5B8
:1033E000806189BD89B5826089BD09B400FEFDCFC9
:1033F00061E070E080E090E00E9436068091D800A5
:103400008F7C80618093D8008091E000807F8093E2
:10341000E0008091E1008E7E8093E1008DE080935A
:10342000E2008FEF9FEF90931C0580931B0564E6ED
:1034300070E080E090E00E94360689E594E00E940A
:10344000460F62E089E00E94D50568E270E080E006
:1034500090E00E94360689E00E947E05892B89F45F
:1034600068E270E080E090E00E94360689E00E9409
:103470007E05892B31F480E493E00E94460F0E9480
:103480008211109201041092000410924F041092C5
:1034900071040E948E0A84E796E09093E003809383
:1034A000DF0385E796E09093DE038093DD038EE5EE
:1034B00080937C0010927B008EE493E00E94460F84
:1034C0000E946204882331F08FE895E00E94AE10DC
:1034D0008111F6CF68EE73E080E090E00E9436063E
:1034E000CE0101960E94B1112D812D962FAF2D97FF
:1034F0003E81AC963FAFAC974F8127964FAF279751
:103500005885AD965FAFAD97213071F0223009F448
:103510003AC52796EFAD2797E23009F448C5F6E0A3
:103520002696FFAF26970AC027968FAD2797823041
:1035300009F433C596E326969FAF2697AB80BC80EF
:1035400039842A848B859C85A3969FAF8EAFA397E1
:10355000AD8DBE8DA596BFAFAEAFA597EF8DF8A18F
:10356000A796FFAFEEAFA79729A13AA1A1963FAFCB
:103570002EAFA1974BA15CA1AB965FAF4EAFAB97BF
:103580008DA19EA161969FAF8EAF6197AFA1B8A5A7
:103590002F96BFAFAEAF2F97E9A5FAA56796FFAFFD
:1035A000EEAF67972BA53CA563963FAF2EAF639711
:1035B0004DA55EA565965FAF4EAF65978FA598A99F
:1035C0006B969FAF8EAF6B97A9A9BAA96996BFAF4B
:1035D000AEAF6997EBA9FCA96D96FFAFEEAF6D9703
:1035E0002DA93EA96F963FAF2EAF6F976FA878AC0D
:1035F00049AC5AAC8BAC9CAC4DAD5EAD2A965FAF7E
:103600004EAF2A9721968EAD9FAD21972C969FAFF6
:103610008EAF2C972396AEADBFAD2397A996BFAFC3
:10362000AEAFA99784E68A9D80018B9D100D112471
:103630006801F12CE12C82E794E090938507809358
:1036400084078FEF9FEF90938D0780938C0760E046
:1036500079E08DE390E0A70198010E94662B21504C
:103660003109410951095695479537952795E091BC
:103670008204F091830482E080830115B1EE1B0780
:1036800021F02115E0E13E07A8F0E0918204F091DD
:103690008304108260E874E88EE190E0A70196014F
:1036A0000E94662B215031094109510956954795D1
:1036B00037952795E0917E04F0917F043083E09167
:1036C0008004F0918104208310928A04E0918604A2
:1036D000F091870426962FAD26972083E0918404ED
:1036E000F0918504808180618083E0918404F09171
:1036F0008504808188608083E0918404F091850452
:10370000808180688083E0918404F09185048081C9
:103710008F7D808360ED77E080E090E00E94360648
:1037200001301B4408F448C48EEE92E090938F075A
:1037300080938E0786ED96E0909391078093900793
:103740003092920740E550E563E77CE98CE797E02B
:103750000E9420118CE593E00E94460F8CE797E0D1
:1037600090937B0780937A07E8E3CE2EE6E0DE2E87
:10377000F9E9EF2EF5E0FF2EF701329644912696F7
:103780004FAF2697F70105911491C8010E94520F7F
:1037900026965FAD2697513009F437C408F425C446
:1037A000523009F44EC4533009F43DC483E0E80EAE
:1037B000F11CCE14DF0401F7E9E9F5E045915491DD
:1037C000B50180917A0790917B070E948D0CECE9FE
:1037D000F5E0459154912D966FAD2D97AC967FAD48
:1037E000AC9780917A0790917B070E948D0CEFE94E
:1037F000F5E04591549127966FAD2797AD967FAD33
:10380000AD9780917A0790917B070E948D0CE2EA38
:10381000F5E045915491632D722D80917A07909136
:103820007B070E948D0CE8EAF5E045915491A39640
:103830006EAD7FADA39780917A0790917B070E9430
:103840008D0CE7EEF5E0459154916D857E85809174
:103850007A0790917B070E948D0CEAEEF5E0459186
:1038600054916F85788980917A0790917B070E94A7
:103870008D0CEDEEF5E04591549169897A8980913E
:103880007A0790917B070E948D0CE0EFF5E045915F
:1038900054916B897C8980917A0790917B070E9473
:1038A0008D0CE3EFF5E0459154916D897E8980910F
:1038B0007A0790917B070E948D0CE6EFF5E0459129
:1038C00054916F89788D80917A0790917B070E943F
:1038D0008D0CE9EFF5E045915491698D7A8D8091D9
:1038E0007A0790917B070E948D0CECEFF5E04591F3
:1038F00054916B8D7C8D80917A0790917B070E940B
:103900008D0CEFEFF5E045915491A5966EAD7FAD2E
:10391000A59780917A0790917B070E948D0CE2E039
:10392000F6E045915491A7966EAD7FADA797809133
:103930007A0790917B070E948D0CE5E0F6E04591B7
:103940005491A1966EAD7FADA19780917A07909129
:103950007B070E948D0CE8E0F6E045915491AB9610
:103960006EAD7FADAB9780917A0790917B070E94F7
:103970008D0CEBE0F6E04591549161966EAD7FAD14
:10398000619780917A0790917B070E948D0CEEE001
:10399000F6E0459154912F966EAD7FAD2F978091B3
:1039A0007A0790917B070E948D0CE1E1F6E045914A
:1039B000549167966EAD7FAD679780917A0790912D
:1039C0007B070E948D0CE4E1F6E0459154916396EB
:1039D0006EAD7FAD639780917A0790917B070E94CF
:1039E0008D0CE7E1F6E04591549165966EAD7FADA3
:1039F000659780917A0790917B070E948D0CEAE190
:103A0000F6E0459154916B966EAD7FAD6B978091CA
:103A10007A0790917B070E948D0CEDE1F6E04591CD
:103A2000549169966EAD7FAD699780917A079091B8
:103A30007B070E948D0CE0E2F6E0459154916D9673
:103A40006EAD7FAD6D9780917A0790917B070E9454
:103A50008D0CE3E2F6E0459154916F966EAD7FAD2B
:103A60006F9780917A0790917B070E948D0CE6E218
:103A7000F6E045915491B30180917A0790917B07CC
:103A80000E948D0CE9E2F6E045915491B2018091DB
:103A90007A0790917B070E948D0CECE2F6E045914D
:103AA0005491B40180917A0790917B070E948D0C0C
:103AB000EFE2F6E0459154912A966EAD7FAD2A97DC
:103AC00080917A0790917B070E948D0CE2E3F6E0EB
:103AD000459154912C966EAD7FAD2C9780917A07CD
:103AE00090917B070E948D0CE5E3F6E0459154919F
:103AF000A9966EAD7FADA99780917A0790917B07CB
:103B00000E948D0C75EA272E75E0372EF101459144
:103B1000549170E060E080917A0790917B070E9459
:103B20008D0C8FEF9FEF0E94770987E793E00E944B
:103B3000460F8091AA0581113EC0809199058F732F
:103B400080648093990581E090E09093A105809333
:103B5000A0051092A3051092A2051092A50510923F
:103B6000A4051092A7051092A6051092A90510921F
:103B7000A8051092AB0520919C0530919D054091C0
:103B80009E0550919F0560E074E284EF90E00E94F2
:103B9000662B2051310941095109569547953795B2
:103BA00027952093B80060EA80E00E94060C64E04C
:103BB00081E00E94060CE4ECF5E084ED95E04FEF27
:103BC0005FE021E030E041935193378726878E17DD
:103BD0009F07C9F78091AA05811106C060E070E0D7
:103BE0008AEF93E40E945A0D8091AA0581110BC0BF
:103BF000A396AEADBFADA397BD0190E080E00E945B
:103C00009D2C0E945A0DA596EEADFFADA597F093A1
:103C1000C505E093C405A7962EAD3FADA797309399
:103C2000C7052093C605A1964EAD5FADA1975093F1
:103C3000C9054093C805AB968EAD9FADAB979093E9
:103C4000CB058093CA056196AEADBFAD6197B093C9
:103C5000CD05A093CC052F96EEADFFAD2F97F09339
:103C6000CF05E093CE0567962EAD3FAD67973093B5
:103C7000D1052093D00563964EAD5FAD6397509309
:103C8000D3054093D20565968EAD9FAD6597909311
:103C9000D5058093D4056B96AEADBFAD6B97B09351
:103CA000D705A093D6056996EEADFFAD6997F09361
:103CB000D905E093D8056D962EAD3FAD6D97309345
:103CC000DB052093DA056F964EAD5FAD6F9750938D
:103CD000DD054093DC057092DF056092DE055092B1
:103CE000E1054092E0059092E3058092E20534EB15
:103CF000E32E35E0F32E10E000E0D70190964D91D1
:103D00005C91F701419351937F01B80189E995E0F6
:103D10000E94BD0BB80189E995E00E94CD0940E001
:103D200050E170E060E089E995E00E94B20981E02D
:103D30000E94CD0A8093AB050F5F1F4F083011051D
:103D4000E1F664EF71E080E090E00E94360608EF53
:103D500015E0F12CE12C8EE1A82EB12C9FE7D92E95
:103D6000CC24C394412C512C32014394E8E7F7E072
:103D7000D8019596FC93EE93949729E935E09396B4
:103D80003C932E9392978E2CF701EF5AFB4F949011
:103D900099969C9299979896EC92989716968D91F1
:103DA0009C911797896117969C938E9316972A96E4
:103DB000EEADFFAD2A975196FC93EE9350972C965B
:103DC0002EAD3FAD2C9753963C932E9352974CEDCE
:103DD00055E01B965C934E931A971996BC92AE923F
:103DE000189762E0892D0E94D505D80156969C92BD
:103DF00056975796EC9257975996DC9259975B963F
:103E00001C921E925A975D961C921E925C97589631
:103E1000CC92589715961C930E93149716968D91E5
:103E20009C911797906817969C938E9316979496EB
:103E30008D919C919597892BE9F19296ED91FC914A
:103E400093973097B9F198968C918930A0F4ED5AF8
:103E5000FF4FA301920104C0220F331F441F551FBF
:103E60008A95D2F7C901809590952081318182236E
:103E7000932391838083682DD80194968D919C9192
:103E80000E940A0D482FF80186A382A193A10097F2
:103E900019F060A50E94620FD80194968D909C90B5
:103EA000C80144960E943E0D482FF80160A5C40148
:103EB0000E94A80C85E294E00E94460F2A968EADDF
:103EC0009FAD2A970E94520F2C968EAD9FAD2C97D6
:103ED0000E94520FA9968EAD9FADA9970E94520FD6
:103EE00080E194E00E94460FFFEFEF1AFF0A005DA9
:103EF0001F4F28E0E216F10409F038CF61E081E1BC
:103F00000E94D50561E08EE10E94D50561E081E166
:103F10000E94A70561E08EE10E94A705412C512C6B
:103F20003201439410928207809184079091850713
:103F3000DC01ED91FC910084F185E02D0995409123
:103F40008207242F30E0281739070CF088C08091B1
:103F5000840790918507DC01ED91FC910084F18547
:103F6000E02D09958093820780918E0790918F07AD
:103F700082309105C8F2880F991F880F991F059705
:103F80000197F1F7D1CF2796AFAD2797A23051F027
:103F9000B6E22696BFAF2697D1CA2EE326962FAF5C
:103FA0002697CCCA3EE226963FAF2697C7CA4EE078
:103FB00026964FAF2697C2CA60EC71EE84EE90E071
:103FC000A70196010E94472B30938F0720938E07FD
:103FD00060EC7EE086E192E0A70196010E94472B0B
:103FE0003093910720939007ABCBB8016F5F7F4F61
:103FF00050E040E080917A0790917B070E94201169
:1040000086EF93E00E94460FD1CBB8016F5E784DEA
:1040100050E040E080917A0790917B070E94201148
:1040200082ED93E0EFCFB8016F5B734650E040E064
:1040300080917A0790917B070E94201181EB93E099
:10404000E1CFB8016F5C7A4850E040E080917A0798
:1040500090917B070E94201182E993E0D3CF442303
:1040600009F41FC4C9010E94032A90938107809319
:10407000800710E0809182071817A0F480918407D0
:1040800090918507DC01ED91FC910284F385E02D90
:104090000995E0918007F0918107E10FF11D808380
:1040A0001F5FE8CFC0908007D0908107F601F081B4
:1040B0002696FFAF2697FF3F21F090919207F913C4
:1040C000E8C39DEF980F46012FEF821A920A2696B9
:1040D0004FAD2697409550E0FA01E75EFD4F2081F5
:1040E000622F6095475E5E4FDA014C91F40191506A
:1040F00068F02191262730E0D901A75EBD4F6C9171
:104100006427275E3E4FD9014C91F1CF8C0D9D2D38
:10411000911DFC01329720810197FC018081922F33
:10412000562F8417950709F0B4C3D60111968C91C8
:1041300011971296ED90FC901397FE24EF24FE2425
:1041400014960D911C911597102701271027EFEF5A
:10415000E80FE03108F046C3F0E0EF54FF4D0C9457
:10416000AC2D0C2281221621F5224723C120F223F7
:10417000F223F223F223F223F223F223F2237B230E
:104180006821BFEBEB1AB3E6FB0AB7018CE797E0B7
:104190000E945609009771F0FC0113830283B70156
:1041A0008CE797E00E949C090817190709F496C24A
:1041B00064E001C062E086E00E94011126964FADE6
:1041C00026974F3F09F493C280918307833009F407
:1041D000ECC0823009F05DC3009180071091810727
:1041E00080918C0790918D0797FD09C061E00E9436
:1041F000A70561E070E080E090E00E943606F12CB7
:104200008091840790918507DC01ED91FC912091CC
:104210008207F21608F022C3D801AF0DB11D01903C
:10422000F081E02D6C910995F394EACFC8010197D4
:1042300063E08D37910500F52FEBE21A23E6F20AD1
:10424000B7018CE797E00E94560962E0892BA1F044
:10425000C6010E949F2AC8010196D82EDD0CD0927B
:1042600082078D2D90E00E94032A9093810780930E
:104270008007009719F464E083E09ECF23E0DC011F
:104280002C93DA94DA941196DC92D12CC12CA09064
:104290008007B09081070C151D0509F47DC0B7019A
:1042A0006C0D7D1D8CE797E00E949C09BFEFCB1A37
:1042B000DB0A9601220F331FD501A20FB31F9C9377
:1042C000E0918007F0918107E20FF31F8183DFCF38
:1042D000C80101978B379105D0F416962C91C8012F
:1042E000880F991F2817190691F4912C812C5701DA
:1042F000BFEBAB1AB3E6BB0AB501680D791D8CE7BD
:1043000097E00E945609892B29F462E001C063E01E
:1043100080E152CFEFEF8E1A9E0A8016910661F768
:10432000C6010E949F2A85E08093820785E090E085
:104330000E94032AFC019093810780938007892BB8
:1043400011F464E0E5CF80E18083F182E2821382A0
:104350000483B12CA12CFFEBEF1AF3E6FF0AD60180
:1043600017968C90179718968C91982C882EB701D9
:104370006A0D7B1D8CE797E00E945609009719F0A3
:10438000FC0193828282FFEFAF1ABF0A22E0C20EC5
:10439000D11C0A151B0519F783E080938307269625
:1043A000EFAD2697EF3F09F4A2C10091800710916D
:1043B000810780918C0790918D0797FD09C061E07E
:1043C0000E94A70561E070E080E090E00E94360660
:1043D0008091840790918507DC01ED91FC9101901B
:1043E000F081E02D609192070995F12C6091820790
:1043F0008091840790918507DC01ED91FC91C0804C
:10440000D180F61608F0F0C1D801AF0DB11D6C9146
:10441000F6010995F394EACFC801019763E0803D66
:10442000974050F4B7016F5F7F4F8CE797E00E9491
:104430005609892B19F462E081E0BECEC6010E94C4
:104440009F2AC801E3E096958795EA95E1F79801E0
:1044500027703327232B89F48E5F80938207D090B7
:1044600082078D2D90E00E94032A9093810780930C
:104470008007009721F464E0DFCF8D5FEECF21E06D
:10448000DC012C93DA94DA941196DC926801BFEF88
:10449000CB1ADB0A01E010E0912CA0908007B090CD
:1044A0008107C016D10609F477CFB8016E0D7F1DC4
:1044B0008CE797E00E949C09B301A201092C04C07B
:1044C000440F551F661F771F0A94D2F7F80173E057
:1044D000F695E7957A95E1F73296EA0DFB1D208176
:1044E00081159F4F59F0409524232083939448E0F1
:1044F000941201C0912C0F5F1F4FCFCF422B4083EE
:10450000F5CFC801019763E0803D974050F58FEEED
:10451000E81A88EDF80AB7018CE797E00E9456097F
:10452000892B09F488CFC6010E949F2AC80163E045
:10453000969587956A95E1F7980127703327232B85
:1045400091F48E5F80938207D09082078D2D90E04A
:104550000E94032A9093810780938007009729F493
:1045600064E082E029CE8D5FEDCF22E0DC012C9368
:10457000DA94DA941196DC9270E060E0912CA090CD
:104580008007B09081076017710709F405CF6B01B0
:10459000BFEFCB1ADB0A6E0D7F1D8CE797E00E9400
:1045A0009C09B301A201092C04C0440F551F661FCA
:1045B000771F0A94D2F7F60153E0F695E7955A95DE
:1045C000E1F73296EA0DFB1D208181159F4F51F0D6
:1045D000409524232083939448E0941201C0912CA9
:1045E000B601CDCF422B4083F6CFC801019763E0DF
:1045F0008D37910500F55FECE51A5AE8F50AB70129
:104600008CE797E00E945609892B09F414CFC60164
:104610000E949F2AC8010196D82EDD0CD0928207F5
:104620008D2D90E00E94032A90938107809380074C
:10463000009719F464E084E0BFCD24E0DC012C9302
:10464000DA94DA941196DC92D12CC12CA0908007D8
:10465000B09081070C151D0509F49ECEB7016C0DB5
:104660007D1D8CE797E00E949C09BFEFCB1ADB0A07
:104670009601220F331FD501A20FB31F9C93E09127
:104680008007F0918107E20FF31F8183DFCF0115CF
:10469000EFEF1E0721F063E00115110571F4DD2431
:1046A000D394012B09F4D12C4D2DB7018CE797E061
:1046B0000E948509811103C062E085E07DCDB701CC
:1046C0006F5F7F4F8CE797E00E949C0921E0811586
:1046D0009F4F09F020E064E02D11EFCF82E080933E
:1046E00083072696FFAD2697FF3F09F075CD81E041
:1046F0008093830769CDC801B3E096958795BA95F5
:10470000E1F7980127703327232B09F001969801D0
:1047100021503109203B3740E0F4D60116962C9108
:1047200028171906B1F4B12CA12CF701319628965F
:10473000FFAFEEAF289728966EAD7FAD28976A0D34
:104740007B1D8CE797E00E945609892B29F462E0D3
:1047500001C063E08FE030CDFFEFAF1ABF0AA016B3
:10476000B10649F7C6010E949F2A85E0809382071F
:1047700085E090E00E94032AFC01909381078093DA
:104780008007892B11F464E0E5CF8FE08083F1820C
:10479000E28213830483D12CC12CB12CB6016E0D9F
:1047A0007F1DC016D10609F4F7CD2FEFC21AD20A29
:1047B000F601A3E0F695E795AA95E1F7E80DF91D56
:1047C000468150E00B2C02C0559547950A94E2F7BC
:1047D00041708CE797E00E948509B39438E0B312EA
:1047E000DDCFDBCF61E0E8CC40919207409550E00F
:1047F000DA01A75EBD4F0C910095475E5E4FDA016E
:104800007C91A0918007B0918107615078F02D9143
:104810000227202F30E0A901475E5D4FFA01008199
:104820000727275E3E4FF9017081EFCF102F072F2A
:10483000612FF60109958091840790918507DC012D
:10484000ED91FC910190F081E02D602F0995809110
:10485000840790918507DC01ED91FC910680F7813A
:10486000E02D0995809190079091910782309105F4
:1048700038F0880F991F880F991F05970197F1F756
:1048800080918C0790918D0797FD03C060E00E9496
:10489000A70580918007909181070E949F2A10921E
:1048A00082070CE016E05FEC852E55E0952EF801AE
:1048B00080899189009709F464C026853785232B68
:1048C00009F45FC064890E940A0DD80152962C91A8
:1048D000529728171906B1F054966C915497509638
:1048E0008D919C910E940A0D482FF801828B86853C
:1048F0009785009719F064890E94620F8EE894E012
:104900000E94460FD80154966C91549750968D9101
:104910009C910E94D90CF8019389891729F1E684AA
:10492000F7846489808991890E94D90CD8015496B2
:104930009C919930A8F4F701ED5AFF4F2081318105
:10494000B301A20104C0440F551F661F771F9A953B
:10495000D2F7882309F485C0242B352B318320839B
:1049600088E794E00E94460FF801E088F188C801CA
:104970000E943E0D482FD80154966C91C7010E94A9
:10498000A80CF8018689811130C00E946806D80100
:104990005796CD90DD90ED90FC905A97AB01BC01FD
:1049A0004C195D096E097F09F80134978081918166
:1049B00088519C4FB0E0A0E084179507A607B70781
:1049C000A0F4F801F580F1E0FF120FC00E94680624
:1049D000D80157966D937D938D939C935A975696D5
:1049E000FC9288E694E00E94460FF8018685978540
:1049F0000097D9F0248930E0293020F4FC01E20F3F
:104A0000F11D3389D80152963C93293078F58D5A9F
:104A10009F4FFC018081918102C0969587952A95D0
:104A2000E2F78170D80153968C93F801A089B1897F
:104A3000109709F462C0628970E084898830F0F4CC
:104A4000E82FF0E0E75DFA4D12968D919C910C9461
:104A5000AC2D3825562559255C255F256225652511
:104A60006825409550952423352378CF80E0DACF10
:104A7000E7EEF5E0459154910E948D0CF801A08974
:104A8000B18963898489883058F5E82FF0E0E25BCA
:104A9000FA4D12968D919C910C94AC2D6B25A2260B
:104AA000A526A826AB26AE26B126B426EAEEF5E06A
:104AB000E1CFEDEEF5E0DECFE0EFF5E0DBCFE3EFC9
:104AC000F5E0D8CFE6EFF5E0D5CFE9EFF5E0D2CFCE
:104AD000ECEFF5E0CFCFF401459154910E94600CCA
:104AE000D8015096ED90FC90C8010E943E0D482FD1
:104AF000F8016489C7010E94A80CD8018D919C918E
:104B0000DC01ED91FC910280F381E02DD801129639
:104B10006C910995B82EF80180819181DC01ED91AD
:104B2000FC910190F081E02D09956B01F8018481E1
:104B300081FF1DC126813781A601421B530B0190C5
:104B4000F081E02D268137814217530708F417C101
:104B50008D7FD80114968C93D80115968C9115975A
:104B60008F3709F460C3ED91FC9111978481958191
:104B700083709927892BA1F114968C91149787FF44
:104B800017C018968D919C919601281B390BC9016D
:104B9000228533858217930758F062E0C8010E948E
:104BA0003309D80114968C9114978F7714968C93AF
:104BB000F801848183FF14C00190F081E02DD801B9
:104BC00018962D913C911997A601421B530B9A01FF
:104BD000428553852417350718F0877F14968C93E8
:104BE000D801ED91FC911197848182FF1EC014962B
:104BF0008C911497982F9170B916B9F082FF15C057
:104C000085FD13C01A962D913C911B97A601421B5E
:104C1000530B248535854217530738F0806214966C
:104C20008C9364E0C8010E943309D801ED91FC9196
:104C30001197848183FF1DC014968C911497982F2F
:104C40009170B916B1F082FF14C086FF83C21C9622
:104C50008D919C919601281B390B80899189281789
:104C6000390738F065E0C8010E943309F801D5869C
:104C7000C486D80115968C911597B81609F47FC093
:104C80001596BC92159714968C911497982F917045
:104C9000B91659F01B96DC92CE921A97846014963E
:104CA0008C9360E0C8010E943309F8016481862F6B
:104CB0008170B81264C00190F081E02D84819581EB
:104CC0009C0123703327232B31F062FD54C2677F90
:104CD000D80114966C93F8012481322F307225FF8D
:104CE00006C00190F081E02D848186FD98C226FFE8
:104CF00006C0D801ED91FC91848187FD90C223FF0D
:104D000006C0D801ED91FC91848184FD88C280E0C9
:104D100024FF0BC0D801ED91FC918481958145E081
:104D2000969587954A95E1F781702B78F801248351
:104D3000882309F476C266E0332309F1C8010E9492
:104D400033091DC0E2EDF5E0C7CEE5EDF5E0C4CED8
:104D5000E8EDF5E0C1CEEBEDF5E0BECEEEEDF5E031
:104D6000BBCEE1EEF5E0B8CEE4EEF5E0B5CE958150
:104D7000B91609F4F1CE82608483D782C682005DC1
:104D80001F4FECE8F7E0E017F10709F090CD109223
:104D9000EB051092EA051092E9051092E805BCEACD
:104DA000EB2EB5E0FB2E04EB15E0D12CC12CD70186
:104DB0004D917D016C2D89E995E00E94270C209191
:104DC000EC053091ED050C2C02C0369527950A9420
:104DD000E2F721703327FC012E9FC0012F9F900D19
:104DE0003E9F900D1124D8016D917D918D01861704
:104DF000970719F1A30192010C2C04C0220F331F55
:104E0000441F551F0A94D2F749014091E80550917B
:104E1000E905482959295093E9054093E80520916F
:104E2000EA053091EB056817790708F0FFC12829DA
:104E300039293093EB052093EA053FEFC31AD30AD3
:104E400048E0C416D10409F0B2CF0E946806009170
:104E5000E4051091E5052091E6053091E705601B1A
:104E6000710B820B930BF12C6B3071058105910551
:104E700060F00E9468066093E4057093E5058093F6
:104E8000E6059093E705FF24F3948091E80590915F
:104E9000E905892B09F455C0FF2009F452C010E040
:104EA00000E0D02EE12E8091E8059091E905002EDA
:104EB00002C0969587950A94E2F780FF3CC0F801FE
:104EC000E756FA4F4389602F89E995E00E94270C45
:104ED0002091EC053091ED05002E02C03695279506
:104EE0000A94E2F721703327289FA001299F500DD3
:104EF000389F500D11248091EA059091EB05002E0A
:104F000002C0969587950A94E2F7F801EE0FFF1F0D
:104F1000E756FA4F80FF8FC1838D948D4496841796
:104F2000950708F4AC01548F438F6D2D7E2D89E9D0
:104F300095E00E94BD0B0F5F1F4F0830110509F06F
:104F4000B0CF8091EE059091EF05892B09F452C006
:104F5000FF2009F44FC0E0EFEE2EE5E0FE2E10E05A
:104F600000E0D02EC12ED7018C91882311F0815002
:104F70008C938091EE059091EF050D2C02C09695D3
:104F800087950A94E2F780FF2CC0F7018081811198
:104F900028C081EB94E00E94460FF801EE0FFF1F3E
:104FA000E756FA4F43A554A5548F438F6D2D7C2DA2
:104FB00089E995E00E94BD0BD301C20104C0880FAE
:104FC000991FAA1FBB1FDA94D2F780959095209164
:104FD000EE053091EF05822393239093EF058093A4
:104FE000EE050F5F1F4FFFEFEF1AFF0A08301105A4
:104FF00009F0B7CF0E9468060091E5031091E6031F
:105000002091E7033091E803601B710B820B930B37
:10501000693E73408105910508F422C101EB15E05A
:1050200081E10E947E0561E0892B09F060E081E169
:105030000E94A7050E9468066093E5037093E6034B
:105040008093E7039093E803F80165917491E090F1
:105050007A07F0907B078FEF9FEFE114F10429F0BE
:105060006F5C7A48C7010E949C09B0E0A0E05C0137
:10507000992488246EEAC62E65E0D62EF601659145
:1050800074918FEF9FEFE114F10429F06F5C7A487F
:10509000C7010E949C09B0E0A0E088299929AA29AB
:1050A000BB294C015D013FEF831A930AA30AB30A9F
:1050B000F60165917491E114F10421F0A401C70196
:1050C0000E946509F8012591349180917A079091A9
:1050D0007B07009731F0A50166277727B9010E9469
:1050E0006509F10165917491E0907A07F0907B0772
:1050F000C7010E949F0C8C01892B09F4B1C0F101FA
:105100004591549170E060E0C7010E948D0C0F3012
:10511000110509F09AC08EE195E00E94460F0E94A9
:10512000821189EE94E00E94460F89ED94E00E947E
:10513000460F68EB7BE080E090E00E94360688E155
:1051400098E00FB6F894A895809360000FBE9093F6
:105150006000FFCF1A962D913C911B97A601421B30
:10516000530B268537854217530708F482CD806498
:1051700014968C9377CDD8011A962D913C911B975C
:10518000A601421B530B208531854217530710F0AF
:10519000677F9FCD81FF05C063FD0AC06F7EF80168
:1051A0006483F801848184FF24C0877F848393CD46
:1051B00018968D919C9119979601281B390B828521
:1051C00093852817390720F06F7E14966C93E9CFEA
:1051D00067FF03C06F77F8016483D80114968C9140
:1051E0001497806114968C9363E0C8010E94330980
:1051F000D8CFD801D186C086982F9860948301902B
:10520000F081E02D2481358130FF04C08868149638
:105210008C9361CD62E0C8010E9433095CCD81E0CE
:1052200084CD61E08BCD1596BC92A9CD80949094ED
:1052300028213921FECD838D948D8531910508F487
:1052400072CEAC01445151096ECE0F3F110509F0E9
:1052500068CF8FEF94E00E94460F0E94DA1161CF71
:105260000E9468060091E1031091E2032091E3039C
:105270003091E403601B710B820B930B61367A4E05
:105280008105910508F475C00E94DA1180917A00B9
:10529000806480937A0080917A0086FDFCCF209113
:1052A000780030917900EBEAF5E0E590F490009118
:1052B0007A0710917B070115110569F050E040E075
:1052C00064EB7BE281E190E00E94472BA901B701EA
:1052D000C8010E94650910918E0585E50E94E103D1
:1052E000882331F061E0111160E084E40E94B20390
:1052F00080918E05882309F44CC00E943D048823C8
:10530000E1F30E94A30E6091840580918505909140
:105310008D059A3009F460C09B3009F45FC0993064
:1053200009F4687F90E0982F8827680F792F711D06
:10533000072E000C880B990B0E949F2C20E030E078
:1053400040E85DE30E942B2D20E030E040E251E494
:105350000E942B2D0E94672CCB010E9477090E948E
:1053600068066093E1037093E2038093E3039093F4
:10537000E40380E090E0892B11F40C94921F0E94CA
:105380009807882311F40C94921F0E9400000C943B
:10539000921F80918D058A30A9F050F4893009F070
:1053A000B0CF6EE570E080E090E00E943606A9CFB5
:1053B0008B3069F08C3009F0A4CF6EEE72E080E0A3
:1053C00090E0F3CF6CEB70E080E090E0EECF67E729
:1053D00071E080E090E0E9CF6C7FA4CF6E7FA2CF38
:1053E000CF93DF93C8E7D7E0E097E881F9810280A7
:1053F000F381E02DCE01099585E0C83FD807A1F7DC
:10540000DF91CF9108950F931F93CF93DF93823055
:10541000910510F482E090E0E0919507F0919607F5
:1054200030E020E0B0E0A0E0309799F4211531059C
:1054300009F44AC0281B390B24303105D8F58A817C
:105440009B816115710589F1FB0193838283FE01C4
:1054500011C0408151810281138148175907E0F042
:105460004817590799F4109761F012960C93129708
:1054700013961C933296CF01DF91CF911F910F911C
:1054800008950093950710939607F4CF21153105E1
:1054900051F04217530738F0A901DB019A01BD0111
:1054A000DF01F801C1CFEF01F9CF90939607809308
:1054B0009507CDCFFE01E20FF31F81939193225008
:1054C000310939832883D7CF2091930730919407EE
:1054D000232B41F420910E0130910F01309394075A
:1054E0002093930720910C0130910D012115310576
:1054F00041F42DB73EB74091100150911101241B8A
:10550000350BE0919307F0919407E217F307A0F4AD
:105510002E1B3F0B2817390778F0AC014E5F5F4F09
:105520002417350748F04E0F5F1F509394074093A0
:105530009307819391939FCFF0E0E0E09CCFCF93CE
:10554000DF930097E9F0FC01329713821282A09159
:105550009507B0919607ED0130E020E01097A1F497
:1055600020813181820F931F2091930730919407FE
:105570002817390709F061C0F0939407E093930767
:10558000DF91CF910895EA01CE17DF07E8F54A8150
:105590005B819E0141155105B1F7E901FB83EA8367
:1055A00049915991C40FD51FEC17FD0761F4808113
:1055B00091810296840F951FE901998388838281E6
:1055C00093819B838A83F0E0E0E012968D919C9119
:1055D00013970097B9F52D913C911197CD01029643
:1055E000820F931F20919307309194072817390752
:1055F00039F6309751F51092960710929507B093AF
:105600009407A0939307BCCFD383C2834081518179
:10561000840F951FC817D90761F44E5F5F4F8881CB
:105620009981480F591F518340838A819B819383BD
:1056300082832115310509F0B0CFF0939607E093EE
:1056400095079ECFFD01DC01C0CF13821282D7CF18
:10565000FB01DC0102C005900D9241505040D8F78B
:105660000895F999FECF92BD81BDF89A992780B52A
:105670000895262FF999FECF1FBA92BD81BD20BD96
:105680000FB6F894FA9AF99A0FBE01960895052E6E
:1056900097FB1EF400940E945E2B57FD07D00E94DA
:1056A000662B07FC03D04EF40C945E2B509540956E
:1056B000309521953F4F4F4F5F4F089590958095BE
:1056C000709561957F4F8F4F9F4F0895A1E21A2EDD
:1056D000AA1BBB1BFD010DC0AA1FBB1FEE1FFF1F96
:1056E000A217B307E407F50720F0A21BB30BE40BE6
:1056F000F50B661F771F881F991F1A9469F760952D
:105700007095809590959B01AC01BD01CF010895E6
:105710005058BB27AA270E94A02B0C94F12C0E9462
:10572000E32C38F00E94EA2C20F039F49F3F19F462
:1057300026F40C94E02C0EF4E095E7FB0C94DA2CA4
:10574000E92F0E94022D58F3BA17620773078407E6
:10575000950720F079F4A6F50C94242D0EF4E0952D
:105760000B2EBA2FA02D0B01B90190010C01CA011B
:10577000A0011124FF27591B99F0593F50F4503EC6
:1057800068F11A16F040A22F232F342F4427585FB8
:10579000F3CF469537952795A795F0405395C9F7D0
:1057A0007EF41F16BA0B620B730B840BBAF0915088
:1057B000A1F0FF0FBB1F661F771F881FC2F70EC027
:1057C000BA0F621F731F841F48F4879577956795FA
:1057D000B795F7959E3F08F0B0CF9395880F08F0E6
:1057E0009927EE0F9795879508950E94092C0C94A0
:1057F000F12C0E94EA2C58F00E94E32C40F029F48E
:105800005F3F29F00C94DA2C51110C94252D0C9447
:10581000E02C0E94022D68F39923B1F3552391F3F4
:10582000951B550BBB27AA2762177307840738F00F
:105830009F5F5F4F220F331F441FAA1FA9F335D06C
:105840000E2E3AF0E0E832D091505040E695001C20
:10585000CAF72BD0FE2F29D0660F771F881FBB1FDA
:10586000261737074807AB07B0E809F0BB0B802DB8
:10587000BF01FF2793585F4F3AF09E3F510578F0E4
:105880000C94DA2C0C94252D5F3FE4F3983ED4F36E
:10589000869577956795B795F7959F5FC9F7880FB8
:1058A000911D9695879597F90895E1E0660F771F0A
:1058B000881FBB1F621773078407BA0720F0621B9B
:1058C000730B840BBA0BEE1F88F7E09508950E94C6
:1058D0006E2C6894B1110C94252D08950E940A2D08
:1058E00088F09F5798F0B92F9927B751B0F0E1F0A1
:1058F000660F771F881F991F1AF0BA95C9F714C051
:10590000B13091F00E94242DB1E008950C94242D23
:10591000672F782F8827B85F39F0B93FCCF3869589
:1059200077956795B395D9F73EF4909580957095E6
:1059300061957F4F8F4F9F4F0895E89409C097FB63
:105940003EF490958095709561957F4F8F4F9F4F56
:105950009923A9F0F92F96E9BB279395F69587959A
:1059600077956795B795F111F8CFFAF4BB0F11F45D
:1059700060FF1BC06F5F7F4F8F4F9F4F16C0882304
:1059800011F096E911C0772321F09EE8872F762F3A
:1059900005C0662371F096E8862F70E060E02AF07B
:1059A0009A95660F771F881FDAF7880F9695879567
:1059B00097F9089597F99F6780E870E060E008958F
:1059C0009FEF80EC089500240A9416161706180617
:1059D0000906089500240A941216130614060506F3
:1059E0000895092E0394000C11F4882352F0BB0F84
:1059F00040F4BF2B11F460FF04C06F5F7F4F8F4FE7
:105A00009F4F089557FD9058440F551F59F05F3F21
:105A100071F04795880F97FB991F61F09F3F79F0D0
:105A200087950895121613061406551FF2CF469552
:105A3000F1DF08C0161617061806991FF1CF8695D4
:105A40007105610508940895E894BB2766277727B8
:105A5000CB0197F908950E943E2D0C94F12C0E94E1
:105A6000E32C38F00E94EA2C20F0952311F00C94DE
:105A7000DA2C0C94E02C11240C94252D0E94022D7C
:105A800070F3959FC1F3950F50E0551F629FF00191
:105A9000729FBB27F00DB11D639FAA27F00DB11DAA
:105AA000AA1F649F6627B00DA11D661F829F222733
:105AB000B00DA11D621F739FB00DA11D621F839FBA
:105AC000A00D611D221F749F3327A00D611D231F90
:105AD000849F600D211D822F762F6A2F11249F57DE
